{
  "_format": "hh-sol-artifact-1",
  "contractName": "TicTacToeERC20",
  "sourceName": "contracts/TicTacToeERC20.sol",
  "abi": [
    {
      "inputs": [
        {
          "internalType": "address",
          "name": "_factory",
          "type": "address"
        },
        {
          "internalType": "address",
          "name": "_treasury",
          "type": "address"
        },
        {
          "internalType": "uint8",
          "name": "_fee",
          "type": "uint8"
        }
      ],
      "stateMutability": "nonpayable",
      "type": "constructor"
    },
    {
      "anonymous": false,
      "inputs": [
        {
          "indexed": false,
          "internalType": "enum TicTacToeERC20.Side",
          "name": "side",
          "type": "uint8"
        },
        {
          "indexed": false,
          "internalType": "uint256",
          "name": "amountWon",
          "type": "uint256"
        },
        {
          "indexed": false,
          "internalType": "uint256",
          "name": "fee",
          "type": "uint256"
        }
      ],
      "name": "GameEnded",
      "type": "event"
    },
    {
      "anonymous": false,
      "inputs": [
        {
          "indexed": false,
          "internalType": "address",
          "name": "player2",
          "type": "address"
        }
      ],
      "name": "GameStart",
      "type": "event"
    },
    {
      "anonymous": false,
      "inputs": [
        {
          "indexed": false,
          "internalType": "enum TicTacToeERC20.Side",
          "name": "side",
          "type": "uint8"
        },
        {
          "indexed": false,
          "internalType": "uint8",
          "name": "row",
          "type": "uint8"
        },
        {
          "indexed": false,
          "internalType": "uint8",
          "name": "col",
          "type": "uint8"
        }
      ],
      "name": "GameStep",
      "type": "event"
    },
    {
      "inputs": [],
      "name": "GAME_TYPE",
      "outputs": [
        {
          "internalType": "uint16",
          "name": "",
          "type": "uint16"
        }
      ],
      "stateMutability": "view",
      "type": "function"
    },
    {
      "inputs": [],
      "name": "birthdayBlock",
      "outputs": [
        {
          "internalType": "uint256",
          "name": "",
          "type": "uint256"
        }
      ],
      "stateMutability": "view",
      "type": "function"
    },
    {
      "inputs": [
        {
          "internalType": "uint8",
          "name": "",
          "type": "uint8"
        },
        {
          "internalType": "uint8",
          "name": "",
          "type": "uint8"
        }
      ],
      "name": "board",
      "outputs": [
        {
          "internalType": "enum TicTacToeERC20.Side",
          "name": "",
          "type": "uint8"
        }
      ],
      "stateMutability": "view",
      "type": "function"
    },
    {
      "inputs": [],
      "name": "cancel",
      "outputs": [],
      "stateMutability": "nonpayable",
      "type": "function"
    },
    {
      "inputs": [],
      "name": "coins",
      "outputs": [
        {
          "internalType": "uint256",
          "name": "",
          "type": "uint256"
        }
      ],
      "stateMutability": "view",
      "type": "function"
    },
    {
      "inputs": [],
      "name": "createdTime",
      "outputs": [
        {
          "internalType": "uint256",
          "name": "",
          "type": "uint256"
        }
      ],
      "stateMutability": "view",
      "type": "function"
    },
    {
      "inputs": [],
      "name": "currentTurn",
      "outputs": [
        {
          "internalType": "enum TicTacToeERC20.Side",
          "name": "",
          "type": "uint8"
        }
      ],
      "stateMutability": "view",
      "type": "function"
    },
    {
      "inputs": [],
      "name": "factory",
      "outputs": [
        {
          "internalType": "address",
          "name": "",
          "type": "address"
        }
      ],
      "stateMutability": "view",
      "type": "function"
    },
    {
      "inputs": [],
      "name": "fee",
      "outputs": [
        {
          "internalType": "uint8",
          "name": "",
          "type": "uint8"
        }
      ],
      "stateMutability": "view",
      "type": "function"
    },
    {
      "inputs": [
        {
          "internalType": "uint16",
          "name": "_timeoutTime",
          "type": "uint16"
        },
        {
          "internalType": "address",
          "name": "_token",
          "type": "address"
        },
        {
          "internalType": "uint256",
          "name": "_coins",
          "type": "uint256"
        },
        {
          "internalType": "uint8",
          "name": "_size",
          "type": "uint8"
        }
      ],
      "name": "init",
      "outputs": [],
      "stateMutability": "nonpayable",
      "type": "function"
    },
    {
      "inputs": [],
      "name": "lastStepTime",
      "outputs": [
        {
          "internalType": "uint256",
          "name": "",
          "type": "uint256"
        }
      ],
      "stateMutability": "view",
      "type": "function"
    },
    {
      "inputs": [],
      "name": "player1",
      "outputs": [
        {
          "internalType": "address",
          "name": "",
          "type": "address"
        }
      ],
      "stateMutability": "view",
      "type": "function"
    },
    {
      "inputs": [],
      "name": "player2",
      "outputs": [
        {
          "internalType": "address",
          "name": "",
          "type": "address"
        }
      ],
      "stateMutability": "view",
      "type": "function"
    },
    {
      "inputs": [],
      "name": "size",
      "outputs": [
        {
          "internalType": "uint8",
          "name": "",
          "type": "uint8"
        }
      ],
      "stateMutability": "view",
      "type": "function"
    },
    {
      "inputs": [],
      "name": "start",
      "outputs": [],
      "stateMutability": "nonpayable",
      "type": "function"
    },
    {
      "inputs": [],
      "name": "status",
      "outputs": [
        {
          "internalType": "enum TicTacToeERC20.GameStatus",
          "name": "",
          "type": "uint8"
        }
      ],
      "stateMutability": "view",
      "type": "function"
    },
    {
      "inputs": [
        {
          "internalType": "uint8",
          "name": "_row",
          "type": "uint8"
        },
        {
          "internalType": "uint8",
          "name": "_col",
          "type": "uint8"
        }
      ],
      "name": "step",
      "outputs": [],
      "stateMutability": "nonpayable",
      "type": "function"
    },
    {
      "inputs": [],
      "name": "timeout",
      "outputs": [],
      "stateMutability": "nonpayable",
      "type": "function"
    },
    {
      "inputs": [],
      "name": "timeoutTime",
      "outputs": [
        {
          "internalType": "uint16",
          "name": "",
          "type": "uint16"
        }
      ],
      "stateMutability": "view",
      "type": "function"
    },
    {
      "inputs": [],
      "name": "token",
      "outputs": [
        {
          "internalType": "address",
          "name": "",
          "type": "address"
        }
      ],
      "stateMutability": "view",
      "type": "function"
    },
    {
      "inputs": [],
      "name": "treasury",
      "outputs": [
        {
          "internalType": "address",
          "name": "",
          "type": "address"
        }
      ],
      "stateMutability": "view",
      "type": "function"
    },
    {
      "inputs": [],
      "name": "turnNumber",
      "outputs": [
        {
          "internalType": "uint64",
          "name": "",
          "type": "uint64"
        }
      ],
      "stateMutability": "view",
      "type": "function"
    },
    {
      "inputs": [],
      "name": "winner",
      "outputs": [
        {
          "internalType": "enum TicTacToeERC20.Side",
          "name": "",
          "type": "uint8"
        }
      ],
      "stateMutability": "view",
      "type": "function"
    }
  ],
  "bytecode": "0x60e06040526007805462ffffff60a01b1916600160a81b1790553480156200002657600080fd5b5060405162001a7d38038062001a7d83398101604081905262000049916200008d565b6001600160a01b03928316608052911660a05260ff1660c0524260055543600055620000e0565b80516001600160a01b03811681146200008857600080fd5b919050565b600080600060608486031215620000a357600080fd5b620000ae8462000070565b9250620000be6020850162000070565b9150604084015160ff81168114620000d557600080fd5b809150509250925092565b60805160a05160c0516119586200012560003960008181610310015261139201526000818161024501526114770152600081816102c50152610c1901526119586000f3fe608060405234801561001057600080fd5b506004361061014d5760003560e01c8063be9a6555116100c3578063deb612861161007c578063deb6128614610332578063dfbf53ae14610346578063ea8a1af01461035a578063f24be8c514610362578063fc0c546a14610375578063fddc77691461038e57600080fd5b8063be9a6555146102b8578063c45a0155146102c0578063d17d7780146102e7578063d30895e4146102f0578063dbbf2c4714610303578063ddca3f431461030b57600080fd5b806359a5f12d1161011557806359a5f12d1461021557806361d027b31461024057806370dea79a14610267578063944a28571461026f578063949d225d14610290578063b2f4bdb0146102af57600080fd5b8063200d2ed21461015257806322fcefbe1461017c578063429f5bb1146101935780635367762c146101a85780635700401e146101e3575b600080fd5b60075461016690600160b01b900460ff1681565b60405161017391906116c0565b60405180910390f35b61018560025481565b604051908152602001610173565b6101a66101a13660046116f0565b610397565b005b6101d66101b63660046116f0565b600860209081526000928352604080842090915290825290205460ff1681565b6040516101739190611737565b6003546101fc90610100900467ffffffffffffffff1681565b60405167ffffffffffffffff9091168152602001610173565b600754610228906001600160a01b031681565b6040516001600160a01b039091168152602001610173565b6102287f000000000000000000000000000000000000000000000000000000000000000081565b6101a66107e2565b60015461027d9061ffff1681565b60405161ffff9091168152602001610173565b60035461029d9060ff1681565b60405160ff9091168152602001610173565b61018560055481565b6101a661095e565b6102287f000000000000000000000000000000000000000000000000000000000000000081565b61018560005481565b600654610228906001600160a01b031681565b61027d600081565b61029d7f000000000000000000000000000000000000000000000000000000000000000081565b6007546101d690600160a81b900460ff1681565b6007546101d690600160a01b900460ff1681565b6101a6610ab5565b6101a661037036600461174b565b610c0e565b600154610228906201000090046001600160a01b031681565b61018560045481565b6000600754600160b01b900460ff1660038111156103b7576103b76116aa565b036103ff5760405162461bcd60e51b815260206004820152601360248201527211d85b59481a185cdb89dd081cdd185c9d1959606a1b60448201526064015b60405180910390fd5b6002600754600160b01b900460ff16600381111561041f5761041f6116aa565b0361045d5760405162461bcd60e51b815260206004820152600e60248201526d11d85b59481a185cc8195b99195960921b60448201526064016103f6565b6006546001600160a01b031633148061048057506007546001600160a01b031633145b6104d85760405162461bcd60e51b815260206004820152602360248201527f4f6e6c7920706c61796572732063616e2063616c6c20746869732066756e637460448201526234b7b760e91b60648201526084016103f6565b60035460ff9081169083161080156104f8575060035460ff908116908216105b61053c5760405162461bcd60e51b815260206004820152601560248201527424b73b30b634b2103937bb9037b91031b7b63ab6b760591b60448201526064016103f6565b600060ff80841660009081526008602090815260408083208685168452909152902054166002811115610571576105716116aa565b146105b65760405162461bcd60e51b815260206004820152601560248201527410d95b1b08185b1c9958591e481bd8d8dd5c1a5959605a1b60448201526064016103f6565b6001600754600160a81b900460ff1660028111156105d6576105d66116aa565b146105ec576007546001600160a01b03166105f9565b6006546001600160a01b03165b6001600160a01b0316336001600160a01b0316146106495760405162461bcd60e51b815260206004820152600d60248201526c2737ba103cb7bab9103a3ab93760991b60448201526064016103f6565b60075460ff8381166000908152600860209081526040808320868516845290915290208054600160a81b9093049091169160ff19166001836002811115610692576106926116aa565b0217905550426004556007546040517f7e25afa324fee392f64b9ffe3a73a2a3abfff6f8bbfa267ac0a96e995829712b916106dc91600160a81b90910460ff1690859085906117af565b60405180910390a16003546000906001906106fa9060ff16806117ed565b6107049190611804565b905061070e610d7d565b156107205761071b6112f5565b505050565b600354610100900467ffffffffffffffff168190036107415761071b6112f5565b6001600754600160a81b900460ff166002811115610761576107616116aa565b1461076d576001610770565b60025b6007805460ff60a81b1916600160a81b836002811115610792576107926116aa565b021790555060038054610100900467ffffffffffffffff169060016107b683611817565b91906101000a81548167ffffffffffffffff021916908367ffffffffffffffff16021790555050505050565b6000600754600160b01b900460ff166003811115610802576108026116aa565b036108455760405162461bcd60e51b815260206004820152601360248201527211d85b59481a185cdb89dd081cdd185c9d1959606a1b60448201526064016103f6565b6002600754600160b01b900460ff166003811115610865576108656116aa565b036108a35760405162461bcd60e51b815260206004820152600e60248201526d11d85b59481a185cc8195b99195960921b60448201526064016103f6565b60015460045442916108bb9161ffff9091169061183e565b106108fe5760405162461bcd60e51b81526020600482015260136024820152721d1a5b595bdd5d081a185cc81b9bdd081e595d606a1b60448201526064016103f6565b6001600754600160a81b900460ff16600281111561091e5761091e6116aa565b1461092a57600161092d565b60025b6007805460ff60a01b1916600160a01b83600281111561094f5761094f6116aa565b021790555061095c6112f5565b565b6000600754600160b01b900460ff16600381111561097e5761097e6116aa565b146109be5760405162461bcd60e51b815260206004820152601060248201526f11d85b59481a185cc81cdd185c9d195960821b60448201526064016103f6565b6001546002546040516323b872dd60e01b81523360048201523060248201526044810191909152620100009091046001600160a01b0316906323b872dd906064016020604051808303816000875af1158015610a1e573d6000803e3d6000fd5b505050506040513d601f19601f82011682018060405250810190610a429190611851565b610a4e57610a4e61187a565b60078054600162ff000160a01b0319163360ff60b01b191617600160b01b1790819055426004556040516001600160a01b0390911681527fb3e736faa4964dca0165113d691c436b6fb927baffb3e664f43e18663bdaad12906020015b60405180910390a1565b6006546001600160a01b03163314610b0f5760405162461bcd60e51b815260206004820152601c60248201527f4f6e6c792063726561746f722063616e2063616e63656c2067616d650000000060448201526064016103f6565b6000600754600160b01b900460ff166003811115610b2f57610b2f6116aa565b14610b6f5760405162461bcd60e51b815260206004820152601060248201526f11d85b59481a185cc81cdd185c9d195960821b60448201526064016103f6565b60015460025460405163a9059cbb60e01b81523360048201526024810191909152620100009091046001600160a01b03169063a9059cbb906044016020604051808303816000875af1158015610bc9573d6000803e3d6000fd5b505050506040513d601f19601f82011682018060405250810190610bed9190611851565b610bf957610bf961187a565b6007805460ff60b01b1916600360b01b179055565b336001600160a01b037f00000000000000000000000000000000000000000000000000000000000000001614610c745760405162461bcd60e51b815260206004820152600b60248201526a6e6f7420666163746f727960a81b60448201526064016103f6565b60038160ff1610158015610c8c575060648160ff1611155b610cc55760405162461bcd60e51b815260206004820152600a60248201526957726f6e672073697a6560b01b60448201526064016103f6565b603c8461ffff1610158015610ce0575061ffff8461ffff1611155b610d1c5760405162461bcd60e51b815260206004820152600d60248201526c15dc9bdb99c81d1a5b595bdd5d609a1b60448201526064016103f6565b60018054600680546001600160a01b031916321790556001600160a01b039490941662010000026001600160b01b031990941661ffff90951694909417929092179092556002919091556003805460ff90921660ff19909216919091179055565b6000805b600354610d939060029060ff16611890565b60ff168160ff1610156112ed5760005b600354610db59060029060ff16611890565b60ff168160ff1610156112da57600060ff80841660009081526008602090815260408083208685168452909152902054166002811115610df757610df76116aa565b146112c85760ff8216600090815260086020526040812090610e1a8360016118a9565b60ff9081168252602082019290925260400160002054166002811115610e4257610e426116aa565b60ff80841660009081526008602090815260408083208685168452909152902054166002811115610e7557610e756116aa565b148015610ef8575060ff8216600090815260086020526040812090610e9b8360026118a9565b60ff9081168252602082019290925260400160002054166002811115610ec357610ec36116aa565b60ff80841660009081526008602090815260408083208685168452909152902054166002811115610ef657610ef66116aa565b145b80610ffa575060086000610f0d8460016118a9565b60ff9081168252602080830193909352604091820160009081208583168252909352912054166002811115610f4457610f446116aa565b60ff80841660009081526008602090815260408083208685168452909152902054166002811115610f7757610f776116aa565b148015610ffa575060086000610f8e8460026118a9565b60ff9081168252602080830193909352604091820160009081208583168252909352912054166002811115610fc557610fc56116aa565b60ff80841660009081526008602090815260408083208685168452909152902054166002811115610ff857610ff86116aa565b145b8061112457506008600061100f8460016118a9565b60ff1660ff168152602001908152602001600020600082600161103291906118a9565b60ff908116825260208201929092526040016000205416600281111561105a5761105a6116aa565b60ff8084166000908152600860209081526040808320868516845290915290205416600281111561108d5761108d6116aa565b1480156111245750600860006110a48460026118a9565b60ff1660ff16815260200190815260200160002060008260026110c791906118a9565b60ff90811682526020820192909252604001600020541660028111156110ef576110ef6116aa565b60ff80841660009081526008602090815260408083208685168452909152902054166002811115611122576111226116aa565b145b8061126c575060018260ff16118015611140575060018160ff16115b80156111d6575060086000611156600185611890565b60ff1660ff16815260200190815260200160002060006001836111799190611890565b60ff90811682526020820192909252604001600020541660028111156111a1576111a16116aa565b60ff808416600090815260086020908152604080832086851684529091529020541660028111156111d4576111d46116aa565b145b801561126c5750600860006111ec600285611890565b60ff1660ff168152602001908152602001600020600060028361120f9190611890565b60ff9081168252602082019290925260400160002054166002811115611237576112376116aa565b60ff8084166000908152600860209081526040808320868516845290915290205416600281111561126a5761126a6116aa565b145b156112c85760ff808316600090815260086020908152604080832085851684529091529020546007805491909216919060ff60a01b1916600160a01b8360028111156112ba576112ba6116aa565b021790555060019250505090565b806112d2816118c2565b915050610da3565b50806112e5816118c2565b915050610d81565b506000905090565b6007805460ff60b01b1916600160b11b1790819055600090600160a01b900460ff166002811115611328576113286116aa565b146115575760006001600754600160a01b900460ff16600281111561134f5761134f6116aa565b14611365576007546001600160a01b0316611372565b6006546001600160a01b03165b90506000600254600261138591906117ed565b9050600060646113b860ff7f000000000000000000000000000000000000000000000000000000000000000016846117ed565b6113c291906118e1565b905060006113d08284611804565b60015460405163a9059cbb60e01b81526001600160a01b03878116600483015260248201849052929350620100009091049091169063a9059cbb906044016020604051808303816000875af115801561142d573d6000803e3d6000fd5b505050506040513d601f19601f820116820180604052508101906114519190611851565b61145d5761145d61187a565b60015460405163a9059cbb60e01b81526001600160a01b037f00000000000000000000000000000000000000000000000000000000000000008116600483015260248201859052620100009092049091169063a9059cbb906044016020604051808303816000875af11580156114d7573d6000803e3d6000fd5b505050506040513d601f19601f820116820180604052508101906114fb9190611851565b6115075761150761187a565b7fa6690bb167a8f1c71373dfba160f67320232697264f791ad7d54abfcca17484d600760149054906101000a900460ff16828460405161154993929190611903565b60405180910390a150505050565b60015460065460025460405163a9059cbb60e01b81526001600160a01b039283166004820152602481019190915262010000909204169063a9059cbb906044016020604051808303816000875af11580156115b6573d6000803e3d6000fd5b505050506040513d601f19601f820116820180604052508101906115da9190611851565b6115e6576115e661187a565b60015460075460025460405163a9059cbb60e01b81526001600160a01b039283166004820152602481019190915262010000909204169063a9059cbb906044016020604051808303816000875af1158015611645573d6000803e3d6000fd5b505050506040513d601f19601f820116820180604052508101906116699190611851565b6116755761167561187a565b7fa6690bb167a8f1c71373dfba160f67320232697264f791ad7d54abfcca17484d6000806000604051610aab93929190611903565b634e487b7160e01b600052602160045260246000fd5b60208101600483106116d4576116d46116aa565b91905290565b803560ff811681146116eb57600080fd5b919050565b6000806040838503121561170357600080fd5b61170c836116da565b915061171a602084016116da565b90509250929050565b60038110611733576117336116aa565b9052565b602081016117458284611723565b92915050565b6000806000806080858703121561176157600080fd5b843561ffff8116811461177357600080fd5b935060208501356001600160a01b038116811461178f57600080fd5b9250604085013591506117a4606086016116da565b905092959194509250565b606081016117bd8286611723565b60ff8416602083015260ff83166040830152949350505050565b634e487b7160e01b600052601160045260246000fd5b8082028115828204841417611745576117456117d7565b81810381811115611745576117456117d7565b600067ffffffffffffffff808316818103611834576118346117d7565b6001019392505050565b80820180821115611745576117456117d7565b60006020828403121561186357600080fd5b8151801515811461187357600080fd5b9392505050565b634e487b7160e01b600052600160045260246000fd5b60ff8281168282160390811115611745576117456117d7565b60ff8181168382160190811115611745576117456117d7565b600060ff821660ff81036118d8576118d86117d7565b60010192915050565b6000826118fe57634e487b7160e01b600052601260045260246000fd5b500490565b606081016119118286611723565b60208201939093526040015291905056fea264697066735822122008ce8737f9536b519eb9d567a3f9c507c6fcdcac6d3ccd790a9f92aa40acfea164736f6c63430008130033",
  "linkReferences": {},
  "deployedLinkReferences": {}
}