{
  "_format": "hh-sol-artifact-1",
  "contractName": "TicTacToeERC20",
  "sourceName": "contracts/TicTacToeERC20.sol",
  "abi": [
    {
      "inputs": [
        {
          "internalType": "address",
          "name": "_factory",
          "type": "address"
        }
      ],
      "stateMutability": "nonpayable",
      "type": "constructor"
    },
    {
      "anonymous": false,
      "inputs": [
        {
          "indexed": false,
          "internalType": "enum TicTacToeERC20.Side",
          "name": "side",
          "type": "uint8"
        },
        {
          "indexed": false,
          "internalType": "uint256",
          "name": "amountWon",
          "type": "uint256"
        }
      ],
      "name": "GameEnded",
      "type": "event"
    },
    {
      "anonymous": false,
      "inputs": [
        {
          "indexed": false,
          "internalType": "address",
          "name": "player2",
          "type": "address"
        },
        {
          "indexed": false,
          "internalType": "uint8",
          "name": "row",
          "type": "uint8"
        },
        {
          "indexed": false,
          "internalType": "uint8",
          "name": "col",
          "type": "uint8"
        }
      ],
      "name": "GameStart",
      "type": "event"
    },
    {
      "anonymous": false,
      "inputs": [
        {
          "indexed": false,
          "internalType": "enum TicTacToeERC20.Side",
          "name": "side",
          "type": "uint8"
        },
        {
          "indexed": false,
          "internalType": "uint8",
          "name": "row",
          "type": "uint8"
        },
        {
          "indexed": false,
          "internalType": "uint8",
          "name": "col",
          "type": "uint8"
        }
      ],
      "name": "GameStep",
      "type": "event"
    },
    {
      "inputs": [],
      "name": "GAME_TYPE",
      "outputs": [
        {
          "internalType": "uint16",
          "name": "",
          "type": "uint16"
        }
      ],
      "stateMutability": "view",
      "type": "function"
    },
    {
      "inputs": [
        {
          "internalType": "uint8",
          "name": "",
          "type": "uint8"
        },
        {
          "internalType": "uint8",
          "name": "",
          "type": "uint8"
        }
      ],
      "name": "board",
      "outputs": [
        {
          "internalType": "enum TicTacToeERC20.Side",
          "name": "",
          "type": "uint8"
        }
      ],
      "stateMutability": "view",
      "type": "function"
    },
    {
      "inputs": [],
      "name": "cancel",
      "outputs": [],
      "stateMutability": "nonpayable",
      "type": "function"
    },
    {
      "inputs": [],
      "name": "coins",
      "outputs": [
        {
          "internalType": "uint256",
          "name": "",
          "type": "uint256"
        }
      ],
      "stateMutability": "view",
      "type": "function"
    },
    {
      "inputs": [],
      "name": "createdTime",
      "outputs": [
        {
          "internalType": "uint256",
          "name": "",
          "type": "uint256"
        }
      ],
      "stateMutability": "view",
      "type": "function"
    },
    {
      "inputs": [],
      "name": "currentTime",
      "outputs": [
        {
          "internalType": "uint256",
          "name": "",
          "type": "uint256"
        }
      ],
      "stateMutability": "nonpayable",
      "type": "function"
    },
    {
      "inputs": [],
      "name": "currentTurn",
      "outputs": [
        {
          "internalType": "enum TicTacToeERC20.Side",
          "name": "",
          "type": "uint8"
        }
      ],
      "stateMutability": "view",
      "type": "function"
    },
    {
      "inputs": [],
      "name": "factory",
      "outputs": [
        {
          "internalType": "address",
          "name": "",
          "type": "address"
        }
      ],
      "stateMutability": "view",
      "type": "function"
    },
    {
      "inputs": [
        {
          "internalType": "uint256",
          "name": "_timeoutTime",
          "type": "uint256"
        },
        {
          "internalType": "address",
          "name": "_token",
          "type": "address"
        },
        {
          "internalType": "uint256",
          "name": "_coins",
          "type": "uint256"
        },
        {
          "internalType": "uint256",
          "name": "_size",
          "type": "uint256"
        }
      ],
      "name": "init",
      "outputs": [],
      "stateMutability": "nonpayable",
      "type": "function"
    },
    {
      "inputs": [],
      "name": "lastStepTime",
      "outputs": [
        {
          "internalType": "uint256",
          "name": "",
          "type": "uint256"
        }
      ],
      "stateMutability": "view",
      "type": "function"
    },
    {
      "inputs": [],
      "name": "player1",
      "outputs": [
        {
          "internalType": "address",
          "name": "",
          "type": "address"
        }
      ],
      "stateMutability": "view",
      "type": "function"
    },
    {
      "inputs": [],
      "name": "player2",
      "outputs": [
        {
          "internalType": "address",
          "name": "",
          "type": "address"
        }
      ],
      "stateMutability": "view",
      "type": "function"
    },
    {
      "inputs": [],
      "name": "size",
      "outputs": [
        {
          "internalType": "uint256",
          "name": "",
          "type": "uint256"
        }
      ],
      "stateMutability": "view",
      "type": "function"
    },
    {
      "inputs": [],
      "name": "start",
      "outputs": [],
      "stateMutability": "nonpayable",
      "type": "function"
    },
    {
      "inputs": [],
      "name": "status",
      "outputs": [
        {
          "internalType": "enum TicTacToeERC20.GameStatus",
          "name": "",
          "type": "uint8"
        }
      ],
      "stateMutability": "view",
      "type": "function"
    },
    {
      "inputs": [
        {
          "internalType": "uint8",
          "name": "_row",
          "type": "uint8"
        },
        {
          "internalType": "uint8",
          "name": "_col",
          "type": "uint8"
        }
      ],
      "name": "step",
      "outputs": [],
      "stateMutability": "nonpayable",
      "type": "function"
    },
    {
      "inputs": [],
      "name": "timeout",
      "outputs": [],
      "stateMutability": "nonpayable",
      "type": "function"
    },
    {
      "inputs": [],
      "name": "timeoutTime",
      "outputs": [
        {
          "internalType": "uint256",
          "name": "",
          "type": "uint256"
        }
      ],
      "stateMutability": "view",
      "type": "function"
    },
    {
      "inputs": [],
      "name": "token",
      "outputs": [
        {
          "internalType": "address",
          "name": "",
          "type": "address"
        }
      ],
      "stateMutability": "view",
      "type": "function"
    },
    {
      "inputs": [],
      "name": "turnNumber",
      "outputs": [
        {
          "internalType": "uint256",
          "name": "",
          "type": "uint256"
        }
      ],
      "stateMutability": "view",
      "type": "function"
    },
    {
      "inputs": [],
      "name": "winner",
      "outputs": [
        {
          "internalType": "enum TicTacToeERC20.Side",
          "name": "",
          "type": "uint8"
        }
      ],
      "stateMutability": "view",
      "type": "function"
    }
  ],
  "bytecode": "0x60a06040526008805462ffffff60a01b1916600160a81b17905534801561002557600080fd5b5060405161164038038061164083398101604081905261004491610059565b6001600160a01b031660805242600655610089565b60006020828403121561006b57600080fd5b81516001600160a01b038116811461008257600080fd5b9392505050565b6080516115956100ab600039600081816102310152610a8201526115956000f3fe608060405234801561001057600080fd5b50600436106101375760003560e01c8063be9a6555116100b8578063deb612861161007c578063deb6128614610287578063dfbf53ae1461029b578063ea8a1af0146102af578063f028157d146102b7578063fc0c546a146102ca578063fddc7769146102dd57600080fd5b8063be9a655514610224578063c45a01551461022c578063d18e81b314610253578063d30895e414610259578063dbbf2c471461026c57600080fd5b806359a5f12d116100ff57806359a5f12d146101d657806370dea79a14610201578063944a285714610209578063949d225d14610212578063b2f4bdb01461021b57600080fd5b8063200d2ed21461013c57806322fcefbe14610166578063429f5bb11461017d5780635367762c146101925780635700401e146101cd575b600080fd5b60085461015090600160b01b900460ff1681565b60405161015d919061134c565b60405180910390f35b61016f60025481565b60405190815260200161015d565b61019061018b36600461137c565b6102e6565b005b6101c06101a036600461137c565b600960209081526000928352604080842090915290825290205460ff1681565b60405161015d91906113c3565b61016f60045481565b6008546101e9906001600160a01b031681565b6040516001600160a01b03909116815260200161015d565b61019061069c565b61016f60005481565b61016f60035481565b61016f60065481565b610190610811565b6101e97f000000000000000000000000000000000000000000000000000000000000000081565b4261016f565b6007546101e9906001600160a01b031681565b610274600081565b60405161ffff909116815260200161015d565b6008546101c090600160a81b900460ff1681565b6008546101c090600160a01b900460ff1681565b610190610923565b6101906102c53660046113d7565b610a77565b6001546101e9906001600160a01b031681565b61016f60055481565b6000600854600160b01b900460ff16600381111561030657610306611336565b0361034e5760405162461bcd60e51b815260206004820152601360248201527211d85b59481a185cdb89dd081cdd185c9d1959606a1b60448201526064015b60405180910390fd5b6002600854600160b01b900460ff16600381111561036e5761036e611336565b036103ac5760405162461bcd60e51b815260206004820152600e60248201526d11d85b59481a185cc8195b99195960921b6044820152606401610345565b6007546001600160a01b03163314806103cf57506008546001600160a01b031633145b6104275760405162461bcd60e51b815260206004820152602360248201527f4f6e6c7920706c61796572732063616e2063616c6c20746869732066756e637460448201526234b7b760e91b6064820152608401610345565b6003548260ff1610801561043f57506003548160ff16105b6104835760405162461bcd60e51b815260206004820152601560248201527424b73b30b634b2103937bb9037b91031b7b63ab6b760591b6044820152606401610345565b600060ff808416600090815260096020908152604080832086851684529091529020541660028111156104b8576104b8611336565b146104fd5760405162461bcd60e51b815260206004820152601560248201527410d95b1b08185b1c9958591e481bd8d8dd5c1a5959605a1b6044820152606401610345565b6007546000906001600160a01b0316331461051957600261051c565b60015b905080600281111561053057610530611336565b600854600160a81b900460ff16600281111561054e5761054e611336565b1461058b5760405162461bcd60e51b815260206004820152600d60248201526c2737ba103cb7bab9103a3ab93760991b6044820152606401610345565b60ff8084166000908152600960209081526040808320938616835292905220805482919060ff191660018360028111156105c7576105c7611336565b0217905550426005556040517f7e25afa324fee392f64b9ffe3a73a2a3abfff6f8bbfa267ac0a96e995829712b9061060490839086908690611420565b60405180910390a1610614610b1a565b1561062657610621611086565b505050565b60045460080361063857610621611086565b600181600281111561064c5761064c611336565b1461065857600161065b565b60025b6008805460ff60a81b1916600160a81b83600281111561067d5761067d611336565b0217905550600480549060006106928361145e565b9190505550505050565b6000600854600160b01b900460ff1660038111156106bc576106bc611336565b036106ff5760405162461bcd60e51b815260206004820152601360248201527211d85b59481a185cdb89dd081cdd185c9d1959606a1b6044820152606401610345565b6002600854600160b01b900460ff16600381111561071f5761071f611336565b0361075d5760405162461bcd60e51b815260206004820152600e60248201526d11d85b59481a185cc8195b99195960921b6044820152606401610345565b4260005460055461076e9190611477565b106107b15760405162461bcd60e51b81526020600482015260136024820152721d1a5b595bdd5d081a185cc81b9bdd081e595d606a1b6044820152606401610345565b6001600854600160a81b900460ff1660028111156107d1576107d1611336565b146107dd5760016107e0565b60025b6008805460ff60a01b1916600160a01b83600281111561080257610802611336565b021790555061080f611086565b565b6000600854600160b01b900460ff16600381111561083157610831611336565b146108715760405162461bcd60e51b815260206004820152601060248201526f11d85b59481a185cc81cdd185c9d195960821b6044820152606401610345565b6001546002546040516323b872dd60e01b815233600482015230602482015260448101919091526001600160a01b03909116906323b872dd906064016020604051808303816000875af11580156108cc573d6000803e3d6000fd5b505050506040513d601f19601f820116820180604052508101906108f0919061148a565b6108fc576108fc6114b3565b60088054600162ff000160a01b0319163360ff60b01b191617600160b01b17905542600555565b6007546001600160a01b0316331461097d5760405162461bcd60e51b815260206004820152601c60248201527f4f6e6c792063726561746f722063616e2063616e63656c2067616d65000000006044820152606401610345565b6000600854600160b01b900460ff16600381111561099d5761099d611336565b146109dd5760405162461bcd60e51b815260206004820152601060248201526f11d85b59481a185cc81cdd185c9d195960821b6044820152606401610345565b60015460025460405163a9059cbb60e01b815233600482015260248101919091526001600160a01b039091169063a9059cbb906044016020604051808303816000875af1158015610a32573d6000803e3d6000fd5b505050506040513d601f19601f82011682018060405250810190610a56919061148a565b610a6257610a626114b3565b6008805460ff60b01b1916600360b01b179055565b336001600160a01b037f00000000000000000000000000000000000000000000000000000000000000001614610add5760405162461bcd60e51b815260206004820152600b60248201526a6e6f7420666163746f727960a81b6044820152606401610345565b60009390935560078054326001600160a01b031991821617909155600180549091166001600160a01b039390931692909217909155600255600355565b6000805b6002600354610b2d91906114c9565b8160ff16101561107e5760005b6002600354610b4991906114c9565b8160ff16101561106b57600060ff80841660009081526009602090815260408083208685168452909152902054166002811115610b8857610b88611336565b146110595760ff8216600090815260096020526040812090610bab8360016114dc565b60ff9081168252602082019290925260400160002054166002811115610bd357610bd3611336565b60ff80841660009081526009602090815260408083208685168452909152902054166002811115610c0657610c06611336565b148015610c89575060ff8216600090815260096020526040812090610c2c8360026114dc565b60ff9081168252602082019290925260400160002054166002811115610c5457610c54611336565b60ff80841660009081526009602090815260408083208685168452909152902054166002811115610c8757610c87611336565b145b80610d8b575060096000610c9e8460016114dc565b60ff9081168252602080830193909352604091820160009081208583168252909352912054166002811115610cd557610cd5611336565b60ff80841660009081526009602090815260408083208685168452909152902054166002811115610d0857610d08611336565b148015610d8b575060096000610d1f8460026114dc565b60ff9081168252602080830193909352604091820160009081208583168252909352912054166002811115610d5657610d56611336565b60ff80841660009081526009602090815260408083208685168452909152902054166002811115610d8957610d89611336565b145b80610eb5575060096000610da08460016114dc565b60ff1660ff1681526020019081526020016000206000826001610dc391906114dc565b60ff9081168252602082019290925260400160002054166002811115610deb57610deb611336565b60ff80841660009081526009602090815260408083208685168452909152902054166002811115610e1e57610e1e611336565b148015610eb5575060096000610e358460026114dc565b60ff1660ff1681526020019081526020016000206000826002610e5891906114dc565b60ff9081168252602082019290925260400160002054166002811115610e8057610e80611336565b60ff80841660009081526009602090815260408083208685168452909152902054166002811115610eb357610eb3611336565b145b80610ffd575060018260ff16118015610ed1575060018160ff16115b8015610f67575060096000610ee76001856114f5565b60ff1660ff1681526020019081526020016000206000600183610f0a91906114f5565b60ff9081168252602082019290925260400160002054166002811115610f3257610f32611336565b60ff80841660009081526009602090815260408083208685168452909152902054166002811115610f6557610f65611336565b145b8015610ffd575060096000610f7d6002856114f5565b60ff1660ff1681526020019081526020016000206000600283610fa091906114f5565b60ff9081168252602082019290925260400160002054166002811115610fc857610fc8611336565b60ff80841660009081526009602090815260408083208685168452909152902054166002811115610ffb57610ffb611336565b145b156110595760ff808316600090815260096020908152604080832085851684529091529020546008805491909216919060ff60a01b1916600160a01b83600281111561104b5761104b611336565b021790555060019250505090565b806110638161150e565b915050610b3a565b50806110768161150e565b915050610b1e565b506000905090565b6008805460ff60b01b1916600160b11b1790819055600090600160a01b900460ff1660028111156110b9576110b9611336565b146111e85760006001600854600160a01b900460ff1660028111156110e0576110e0611336565b146110f6576008546001600160a01b0316611103565b6007546001600160a01b03165b905060006002546002611116919061152d565b60015460405163a9059cbb60e01b81526001600160a01b0385811660048301526024820184905292935091169063a9059cbb906044016020604051808303816000875af115801561116b573d6000803e3d6000fd5b505050506040513d601f19601f8201168201806040525081019061118f919061148a565b61119b5761119b6114b3565b7f9efb6d2954ae193e5e6cf0244587191683c513032140197217309b829ba8cda4600860149054906101000a900460ff1660006040516111dc929190611544565b60405180910390a15050565b60015460075460025460405163a9059cbb60e01b81526001600160a01b039283166004820152602481019190915291169063a9059cbb906044016020604051808303816000875af1158015611241573d6000803e3d6000fd5b505050506040513d601f19601f82011682018060405250810190611265919061148a565b611271576112716114b3565b60015460085460025460405163a9059cbb60e01b81526001600160a01b039283166004820152602481019190915291169063a9059cbb906044016020604051808303816000875af11580156112ca573d6000803e3d6000fd5b505050506040513d601f19601f820116820180604052508101906112ee919061148a565b6112fa576112fa6114b3565b7f9efb6d2954ae193e5e6cf0244587191683c513032140197217309b829ba8cda460008060405161132c929190611544565b60405180910390a1565b634e487b7160e01b600052602160045260246000fd5b602081016004831061136057611360611336565b91905290565b803560ff8116811461137757600080fd5b919050565b6000806040838503121561138f57600080fd5b61139883611366565b91506113a660208401611366565b90509250929050565b600381106113bf576113bf611336565b9052565b602081016113d182846113af565b92915050565b600080600080608085870312156113ed57600080fd5b8435935060208501356001600160a01b038116811461140b57600080fd5b93969395505050506040820135916060013590565b6060810161142e82866113af565b60ff8416602083015260ff83166040830152949350505050565b634e487b7160e01b600052601160045260246000fd5b60006001820161147057611470611448565b5060010190565b808201808211156113d1576113d1611448565b60006020828403121561149c57600080fd5b815180151581146114ac57600080fd5b9392505050565b634e487b7160e01b600052600160045260246000fd5b818103818111156113d1576113d1611448565b60ff81811683821601908111156113d1576113d1611448565b60ff82811682821603908111156113d1576113d1611448565b600060ff821660ff810361152457611524611448565b60010192915050565b80820281158282048414176113d1576113d1611448565b6040810161155282856113af565b826020830152939250505056fea2646970667358221220fc5956af01dfdcc9c56667612fbbb80fb1ca3d23c2f12f2b35b00a784f3156e964736f6c63430008130033",
  "linkReferences": {},
  "deployedLinkReferences": {}
}