{
  "_format": "hh-sol-artifact-1",
  "contractName": "TicTacToeERC20",
  "sourceName": "contracts/TicTacToeERC20.sol",
  "abi": [
    {
      "inputs": [
        {
          "internalType": "address",
          "name": "_factory",
          "type": "address"
        },
        {
          "internalType": "address",
          "name": "_treasury",
          "type": "address"
        },
        {
          "internalType": "uint8",
          "name": "_fee",
          "type": "uint8"
        }
      ],
      "stateMutability": "nonpayable",
      "type": "constructor"
    },
    {
      "anonymous": false,
      "inputs": [
        {
          "indexed": false,
          "internalType": "enum TicTacToeERC20.Side",
          "name": "side",
          "type": "uint8"
        },
        {
          "indexed": false,
          "internalType": "uint256",
          "name": "amountWon",
          "type": "uint256"
        },
        {
          "indexed": false,
          "internalType": "uint256",
          "name": "fee",
          "type": "uint256"
        }
      ],
      "name": "GameEnded",
      "type": "event"
    },
    {
      "anonymous": false,
      "inputs": [
        {
          "indexed": false,
          "internalType": "address",
          "name": "player2",
          "type": "address"
        }
      ],
      "name": "GameStart",
      "type": "event"
    },
    {
      "anonymous": false,
      "inputs": [
        {
          "indexed": false,
          "internalType": "enum TicTacToeERC20.Side",
          "name": "side",
          "type": "uint8"
        },
        {
          "indexed": false,
          "internalType": "uint8",
          "name": "row",
          "type": "uint8"
        },
        {
          "indexed": false,
          "internalType": "uint8",
          "name": "col",
          "type": "uint8"
        }
      ],
      "name": "GameStep",
      "type": "event"
    },
    {
      "inputs": [],
      "name": "GAME_TYPE",
      "outputs": [
        {
          "internalType": "uint16",
          "name": "",
          "type": "uint16"
        }
      ],
      "stateMutability": "view",
      "type": "function"
    },
    {
      "inputs": [
        {
          "internalType": "uint8",
          "name": "",
          "type": "uint8"
        },
        {
          "internalType": "uint8",
          "name": "",
          "type": "uint8"
        }
      ],
      "name": "board",
      "outputs": [
        {
          "internalType": "enum TicTacToeERC20.Side",
          "name": "",
          "type": "uint8"
        }
      ],
      "stateMutability": "view",
      "type": "function"
    },
    {
      "inputs": [],
      "name": "cancel",
      "outputs": [],
      "stateMutability": "nonpayable",
      "type": "function"
    },
    {
      "inputs": [],
      "name": "coins",
      "outputs": [
        {
          "internalType": "uint256",
          "name": "",
          "type": "uint256"
        }
      ],
      "stateMutability": "view",
      "type": "function"
    },
    {
      "inputs": [],
      "name": "createdTime",
      "outputs": [
        {
          "internalType": "uint256",
          "name": "",
          "type": "uint256"
        }
      ],
      "stateMutability": "view",
      "type": "function"
    },
    {
      "inputs": [],
      "name": "currentTime",
      "outputs": [
        {
          "internalType": "uint256",
          "name": "",
          "type": "uint256"
        }
      ],
      "stateMutability": "view",
      "type": "function"
    },
    {
      "inputs": [],
      "name": "currentTurn",
      "outputs": [
        {
          "internalType": "enum TicTacToeERC20.Side",
          "name": "",
          "type": "uint8"
        }
      ],
      "stateMutability": "view",
      "type": "function"
    },
    {
      "inputs": [],
      "name": "factory",
      "outputs": [
        {
          "internalType": "address",
          "name": "",
          "type": "address"
        }
      ],
      "stateMutability": "view",
      "type": "function"
    },
    {
      "inputs": [],
      "name": "fee",
      "outputs": [
        {
          "internalType": "uint8",
          "name": "",
          "type": "uint8"
        }
      ],
      "stateMutability": "view",
      "type": "function"
    },
    {
      "inputs": [
        {
          "internalType": "uint16",
          "name": "_timeoutTime",
          "type": "uint16"
        },
        {
          "internalType": "address",
          "name": "_token",
          "type": "address"
        },
        {
          "internalType": "uint256",
          "name": "_coins",
          "type": "uint256"
        },
        {
          "internalType": "uint8",
          "name": "_size",
          "type": "uint8"
        }
      ],
      "name": "init",
      "outputs": [],
      "stateMutability": "nonpayable",
      "type": "function"
    },
    {
      "inputs": [],
      "name": "lastStepTime",
      "outputs": [
        {
          "internalType": "uint256",
          "name": "",
          "type": "uint256"
        }
      ],
      "stateMutability": "view",
      "type": "function"
    },
    {
      "inputs": [],
      "name": "player1",
      "outputs": [
        {
          "internalType": "address",
          "name": "",
          "type": "address"
        }
      ],
      "stateMutability": "view",
      "type": "function"
    },
    {
      "inputs": [],
      "name": "player2",
      "outputs": [
        {
          "internalType": "address",
          "name": "",
          "type": "address"
        }
      ],
      "stateMutability": "view",
      "type": "function"
    },
    {
      "inputs": [],
      "name": "size",
      "outputs": [
        {
          "internalType": "uint8",
          "name": "",
          "type": "uint8"
        }
      ],
      "stateMutability": "view",
      "type": "function"
    },
    {
      "inputs": [],
      "name": "start",
      "outputs": [],
      "stateMutability": "nonpayable",
      "type": "function"
    },
    {
      "inputs": [],
      "name": "status",
      "outputs": [
        {
          "internalType": "enum TicTacToeERC20.GameStatus",
          "name": "",
          "type": "uint8"
        }
      ],
      "stateMutability": "view",
      "type": "function"
    },
    {
      "inputs": [
        {
          "internalType": "uint8",
          "name": "_row",
          "type": "uint8"
        },
        {
          "internalType": "uint8",
          "name": "_col",
          "type": "uint8"
        }
      ],
      "name": "step",
      "outputs": [],
      "stateMutability": "nonpayable",
      "type": "function"
    },
    {
      "inputs": [],
      "name": "timeout",
      "outputs": [],
      "stateMutability": "nonpayable",
      "type": "function"
    },
    {
      "inputs": [],
      "name": "timeoutTime",
      "outputs": [
        {
          "internalType": "uint16",
          "name": "",
          "type": "uint16"
        }
      ],
      "stateMutability": "view",
      "type": "function"
    },
    {
      "inputs": [],
      "name": "token",
      "outputs": [
        {
          "internalType": "address",
          "name": "",
          "type": "address"
        }
      ],
      "stateMutability": "view",
      "type": "function"
    },
    {
      "inputs": [],
      "name": "treasury",
      "outputs": [
        {
          "internalType": "address",
          "name": "",
          "type": "address"
        }
      ],
      "stateMutability": "view",
      "type": "function"
    },
    {
      "inputs": [],
      "name": "turnNumber",
      "outputs": [
        {
          "internalType": "uint64",
          "name": "",
          "type": "uint64"
        }
      ],
      "stateMutability": "view",
      "type": "function"
    },
    {
      "inputs": [],
      "name": "winner",
      "outputs": [
        {
          "internalType": "enum TicTacToeERC20.Side",
          "name": "",
          "type": "uint8"
        }
      ],
      "stateMutability": "view",
      "type": "function"
    }
  ],
  "bytecode": "0x60e06040526006805462ffffff60a01b1916600160a81b1790553480156200002657600080fd5b5060405162001a7438038062001a74833981016040819052620000499162000089565b6001600160a01b03928316608052911660a05260ff1660c05242600455620000dc565b80516001600160a01b03811681146200008457600080fd5b919050565b6000806000606084860312156200009f57600080fd5b620000aa846200006c565b9250620000ba602085016200006c565b9150604084015160ff81168114620000d157600080fd5b809150509250925092565b60805160a05160c051611953620001216000396000818161030d015261138d01526000818161024501526114720152600081816102c50152610c1601526119536000f3fe608060405234801561001057600080fd5b506004361061014d5760003560e01c8063be9a6555116100c3578063deb612861161007c578063deb612861461032f578063dfbf53ae14610343578063ea8a1af014610357578063f24be8c51461035f578063fc0c546a14610372578063fddc77691461038b57600080fd5b8063be9a6555146102b8578063c45a0155146102c0578063d18e81b3146102e7578063d30895e4146102ed578063dbbf2c4714610300578063ddca3f431461030857600080fd5b806359a5f12d1161011557806359a5f12d1461021557806361d027b31461024057806370dea79a14610267578063944a28571461026f578063949d225d14610290578063b2f4bdb0146102af57600080fd5b8063200d2ed21461015257806322fcefbe1461017c578063429f5bb1146101935780635367762c146101a85780635700401e146101e3575b600080fd5b60065461016690600160b01b900460ff1681565b60405161017391906116bb565b60405180910390f35b61018560015481565b604051908152602001610173565b6101a66101a13660046116eb565b610394565b005b6101d66101b63660046116eb565b600760209081526000928352604080842090915290825290205460ff1681565b6040516101739190611732565b6002546101fc90610100900467ffffffffffffffff1681565b60405167ffffffffffffffff9091168152602001610173565b600654610228906001600160a01b031681565b6040516001600160a01b039091168152602001610173565b6102287f000000000000000000000000000000000000000000000000000000000000000081565b6101a66107df565b60005461027d9061ffff1681565b60405161ffff9091168152602001610173565b60025461029d9060ff1681565b60405160ff9091168152602001610173565b61018560045481565b6101a661095b565b6102287f000000000000000000000000000000000000000000000000000000000000000081565b42610185565b600554610228906001600160a01b031681565b61027d600081565b61029d7f000000000000000000000000000000000000000000000000000000000000000081565b6006546101d690600160a81b900460ff1681565b6006546101d690600160a01b900460ff1681565b6101a6610ab2565b6101a661036d366004611746565b610c0b565b600054610228906201000090046001600160a01b031681565b61018560035481565b6000600654600160b01b900460ff1660038111156103b4576103b46116a5565b036103fc5760405162461bcd60e51b815260206004820152601360248201527211d85b59481a185cdb89dd081cdd185c9d1959606a1b60448201526064015b60405180910390fd5b6002600654600160b01b900460ff16600381111561041c5761041c6116a5565b0361045a5760405162461bcd60e51b815260206004820152600e60248201526d11d85b59481a185cc8195b99195960921b60448201526064016103f3565b6005546001600160a01b031633148061047d57506006546001600160a01b031633145b6104d55760405162461bcd60e51b815260206004820152602360248201527f4f6e6c7920706c61796572732063616e2063616c6c20746869732066756e637460448201526234b7b760e91b60648201526084016103f3565b60025460ff9081169083161080156104f5575060025460ff908116908216105b6105395760405162461bcd60e51b815260206004820152601560248201527424b73b30b634b2103937bb9037b91031b7b63ab6b760591b60448201526064016103f3565b600060ff8084166000908152600760209081526040808320868516845290915290205416600281111561056e5761056e6116a5565b146105b35760405162461bcd60e51b815260206004820152601560248201527410d95b1b08185b1c9958591e481bd8d8dd5c1a5959605a1b60448201526064016103f3565b6001600654600160a81b900460ff1660028111156105d3576105d36116a5565b146105e9576006546001600160a01b03166105f6565b6005546001600160a01b03165b6001600160a01b0316336001600160a01b0316146106465760405162461bcd60e51b815260206004820152600d60248201526c2737ba103cb7bab9103a3ab93760991b60448201526064016103f3565b60065460ff8381166000908152600760209081526040808320868516845290915290208054600160a81b9093049091169160ff1916600183600281111561068f5761068f6116a5565b0217905550426003556006546040517f7e25afa324fee392f64b9ffe3a73a2a3abfff6f8bbfa267ac0a96e995829712b916106d991600160a81b90910460ff1690859085906117aa565b60405180910390a16002546000906001906106f79060ff16806117e8565b61070191906117ff565b905061070b610d7a565b1561071d576107186112f0565b505050565b600254610100900467ffffffffffffffff1681900361073e576107186112f0565b6001600654600160a81b900460ff16600281111561075e5761075e6116a5565b1461076a57600161076d565b60025b6006805460ff60a81b1916600160a81b83600281111561078f5761078f6116a5565b021790555060028054610100900467ffffffffffffffff169060016107b383611812565b91906101000a81548167ffffffffffffffff021916908367ffffffffffffffff16021790555050505050565b6000600654600160b01b900460ff1660038111156107ff576107ff6116a5565b036108425760405162461bcd60e51b815260206004820152601360248201527211d85b59481a185cdb89dd081cdd185c9d1959606a1b60448201526064016103f3565b6002600654600160b01b900460ff166003811115610862576108626116a5565b036108a05760405162461bcd60e51b815260206004820152600e60248201526d11d85b59481a185cc8195b99195960921b60448201526064016103f3565b60005460035442916108b89161ffff90911690611839565b106108fb5760405162461bcd60e51b81526020600482015260136024820152721d1a5b595bdd5d081a185cc81b9bdd081e595d606a1b60448201526064016103f3565b6001600654600160a81b900460ff16600281111561091b5761091b6116a5565b1461092757600161092a565b60025b6006805460ff60a01b1916600160a01b83600281111561094c5761094c6116a5565b02179055506109596112f0565b565b6000600654600160b01b900460ff16600381111561097b5761097b6116a5565b146109bb5760405162461bcd60e51b815260206004820152601060248201526f11d85b59481a185cc81cdd185c9d195960821b60448201526064016103f3565b6000546001546040516323b872dd60e01b81523360048201523060248201526044810191909152620100009091046001600160a01b0316906323b872dd906064016020604051808303816000875af1158015610a1b573d6000803e3d6000fd5b505050506040513d601f19601f82011682018060405250810190610a3f919061184c565b610a4b57610a4b611875565b60068054600162ff000160a01b0319163360ff60b01b191617600160b01b1790819055426003556040516001600160a01b0390911681527fb3e736faa4964dca0165113d691c436b6fb927baffb3e664f43e18663bdaad12906020015b60405180910390a1565b6005546001600160a01b03163314610b0c5760405162461bcd60e51b815260206004820152601c60248201527f4f6e6c792063726561746f722063616e2063616e63656c2067616d650000000060448201526064016103f3565b6000600654600160b01b900460ff166003811115610b2c57610b2c6116a5565b14610b6c5760405162461bcd60e51b815260206004820152601060248201526f11d85b59481a185cc81cdd185c9d195960821b60448201526064016103f3565b60005460015460405163a9059cbb60e01b81523360048201526024810191909152620100009091046001600160a01b03169063a9059cbb906044016020604051808303816000875af1158015610bc6573d6000803e3d6000fd5b505050506040513d601f19601f82011682018060405250810190610bea919061184c565b610bf657610bf6611875565b6006805460ff60b01b1916600360b01b179055565b336001600160a01b037f00000000000000000000000000000000000000000000000000000000000000001614610c715760405162461bcd60e51b815260206004820152600b60248201526a6e6f7420666163746f727960a81b60448201526064016103f3565b60038160ff1610158015610c89575060648160ff1611155b610cc25760405162461bcd60e51b815260206004820152600a60248201526957726f6e672073697a6560b01b60448201526064016103f3565b603c8461ffff1610158015610cdd575061ffff8461ffff1611155b610d195760405162461bcd60e51b815260206004820152600d60248201526c15dc9bdb99c81d1a5b595bdd5d609a1b60448201526064016103f3565b60008054600580546001600160a01b031916321790556001600160a01b039490941662010000026001600160b01b031990941661ffff90951694909417929092179092556001919091556002805460ff90921660ff19909216919091179055565b6000805b60028054610d8f919060ff1661188b565b60ff168160ff1610156112e85760005b60028054610db0919060ff1661188b565b60ff168160ff1610156112d557600060ff80841660009081526007602090815260408083208685168452909152902054166002811115610df257610df26116a5565b146112c35760ff8216600090815260076020526040812090610e158360016118a4565b60ff9081168252602082019290925260400160002054166002811115610e3d57610e3d6116a5565b60ff80841660009081526007602090815260408083208685168452909152902054166002811115610e7057610e706116a5565b148015610ef3575060ff8216600090815260076020526040812090610e968360026118a4565b60ff9081168252602082019290925260400160002054166002811115610ebe57610ebe6116a5565b60ff80841660009081526007602090815260408083208685168452909152902054166002811115610ef157610ef16116a5565b145b80610ff5575060076000610f088460016118a4565b60ff9081168252602080830193909352604091820160009081208583168252909352912054166002811115610f3f57610f3f6116a5565b60ff80841660009081526007602090815260408083208685168452909152902054166002811115610f7257610f726116a5565b148015610ff5575060076000610f898460026118a4565b60ff9081168252602080830193909352604091820160009081208583168252909352912054166002811115610fc057610fc06116a5565b60ff80841660009081526007602090815260408083208685168452909152902054166002811115610ff357610ff36116a5565b145b8061111f57506007600061100a8460016118a4565b60ff1660ff168152602001908152602001600020600082600161102d91906118a4565b60ff9081168252602082019290925260400160002054166002811115611055576110556116a5565b60ff80841660009081526007602090815260408083208685168452909152902054166002811115611088576110886116a5565b14801561111f57506007600061109f8460026118a4565b60ff1660ff16815260200190815260200160002060008260026110c291906118a4565b60ff90811682526020820192909252604001600020541660028111156110ea576110ea6116a5565b60ff8084166000908152600760209081526040808320868516845290915290205416600281111561111d5761111d6116a5565b145b80611267575060018260ff1611801561113b575060018160ff16115b80156111d157506007600061115160018561188b565b60ff1660ff1681526020019081526020016000206000600183611174919061188b565b60ff908116825260208201929092526040016000205416600281111561119c5761119c6116a5565b60ff808416600090815260076020908152604080832086851684529091529020541660028111156111cf576111cf6116a5565b145b80156112675750600760006111e760028561188b565b60ff1660ff168152602001908152602001600020600060028361120a919061188b565b60ff9081168252602082019290925260400160002054166002811115611232576112326116a5565b60ff80841660009081526007602090815260408083208685168452909152902054166002811115611265576112656116a5565b145b156112c35760ff808316600090815260076020908152604080832085851684529091529020546006805491909216919060ff60a01b1916600160a01b8360028111156112b5576112b56116a5565b021790555060019250505090565b806112cd816118bd565b915050610d9f565b50806112e0816118bd565b915050610d7e565b506000905090565b6006805460ff60b01b1916600160b11b1790819055600090600160a01b900460ff166002811115611323576113236116a5565b146115525760006001600654600160a01b900460ff16600281111561134a5761134a6116a5565b14611360576006546001600160a01b031661136d565b6005546001600160a01b03165b90506000600154600261138091906117e8565b9050600060646113b360ff7f000000000000000000000000000000000000000000000000000000000000000016846117e8565b6113bd91906118dc565b905060006113cb82846117ff565b60005460405163a9059cbb60e01b81526001600160a01b03878116600483015260248201849052929350620100009091049091169063a9059cbb906044016020604051808303816000875af1158015611428573d6000803e3d6000fd5b505050506040513d601f19601f8201168201806040525081019061144c919061184c565b61145857611458611875565b60005460405163a9059cbb60e01b81526001600160a01b037f00000000000000000000000000000000000000000000000000000000000000008116600483015260248201859052620100009092049091169063a9059cbb906044016020604051808303816000875af11580156114d2573d6000803e3d6000fd5b505050506040513d601f19601f820116820180604052508101906114f6919061184c565b61150257611502611875565b7fa6690bb167a8f1c71373dfba160f67320232697264f791ad7d54abfcca17484d600660149054906101000a900460ff168284604051611544939291906118fe565b60405180910390a150505050565b60005460055460015460405163a9059cbb60e01b81526001600160a01b039283166004820152602481019190915262010000909204169063a9059cbb906044016020604051808303816000875af11580156115b1573d6000803e3d6000fd5b505050506040513d601f19601f820116820180604052508101906115d5919061184c565b6115e1576115e1611875565b60005460065460015460405163a9059cbb60e01b81526001600160a01b039283166004820152602481019190915262010000909204169063a9059cbb906044016020604051808303816000875af1158015611640573d6000803e3d6000fd5b505050506040513d601f19601f82011682018060405250810190611664919061184c565b61167057611670611875565b7fa6690bb167a8f1c71373dfba160f67320232697264f791ad7d54abfcca17484d6000806000604051610aa8939291906118fe565b634e487b7160e01b600052602160045260246000fd5b60208101600483106116cf576116cf6116a5565b91905290565b803560ff811681146116e657600080fd5b919050565b600080604083850312156116fe57600080fd5b611707836116d5565b9150611715602084016116d5565b90509250929050565b6003811061172e5761172e6116a5565b9052565b60208101611740828461171e565b92915050565b6000806000806080858703121561175c57600080fd5b843561ffff8116811461176e57600080fd5b935060208501356001600160a01b038116811461178a57600080fd5b92506040850135915061179f606086016116d5565b905092959194509250565b606081016117b8828661171e565b60ff8416602083015260ff83166040830152949350505050565b634e487b7160e01b600052601160045260246000fd5b8082028115828204841417611740576117406117d2565b81810381811115611740576117406117d2565b600067ffffffffffffffff80831681810361182f5761182f6117d2565b6001019392505050565b80820180821115611740576117406117d2565b60006020828403121561185e57600080fd5b8151801515811461186e57600080fd5b9392505050565b634e487b7160e01b600052600160045260246000fd5b60ff8281168282160390811115611740576117406117d2565b60ff8181168382160190811115611740576117406117d2565b600060ff821660ff81036118d3576118d36117d2565b60010192915050565b6000826118f957634e487b7160e01b600052601260045260246000fd5b500490565b6060810161190c828661171e565b60208201939093526040015291905056fea264697066735822122002ec06329fe4ded9203f9c288e7dab05d60e428e82979ffc2f46546e65521fef64736f6c63430008130033",
  "linkReferences": {},
  "deployedLinkReferences": {}
}